{
    "contractName": "CrowdsaleTemplate",
    "abi": [
        {
            "constant": true,
            "inputs": [],
            "name": "hasClosed",
            "outputs": [
                {
                    "name": "",
                    "type": "bool"
                }
            ],
            "payable": false,
            "stateMutability": "view",
            "type": "function"
        },
        {
            "constant": true,
            "inputs": [],
            "name": "rate",
            "outputs": [
                {
                    "name": "",
                    "type": "uint256"
                }
            ],
            "payable": false,
            "stateMutability": "view",
            "type": "function"
        },
        {
            "constant": true,
            "inputs": [],
            "name": "cap",
            "outputs": [
                {
                    "name": "",
                    "type": "uint256"
                }
            ],
            "payable": false,
            "stateMutability": "view",
            "type": "function"
        },
        {
            "constant": true,
            "inputs": [],
            "name": "weiRaised",
            "outputs": [
                {
                    "name": "",
                    "type": "uint256"
                }
            ],
            "payable": false,
            "stateMutability": "view",
            "type": "function"
        },
        {
            "constant": true,
            "inputs": [],
            "name": "isOpen",
            "outputs": [
                {
                    "name": "",
                    "type": "bool"
                }
            ],
            "payable": false,
            "stateMutability": "view",
            "type": "function"
        },
        {
            "constant": true,
            "inputs": [],
            "name": "closingTime",
            "outputs": [
                {
                    "name": "",
                    "type": "uint256"
                }
            ],
            "payable": false,
            "stateMutability": "view",
            "type": "function"
        },
        {
            "constant": false,
            "inputs": [],
            "name": "finalize",
            "outputs": [],
            "payable": false,
            "stateMutability": "nonpayable",
            "type": "function"
        },
        {
            "constant": true,
            "inputs": [],
            "name": "capReached",
            "outputs": [
                {
                    "name": "",
                    "type": "bool"
                }
            ],
            "payable": false,
            "stateMutability": "view",
            "type": "function"
        },
        {
            "constant": true,
            "inputs": [],
            "name": "wallet",
            "outputs": [
                {
                    "name": "",
                    "type": "address"
                }
            ],
            "payable": false,
            "stateMutability": "view",
            "type": "function"
        },
        {
            "constant": true,
            "inputs": [],
            "name": "finalized",
            "outputs": [
                {
                    "name": "",
                    "type": "bool"
                }
            ],
            "payable": false,
            "stateMutability": "view",
            "type": "function"
        },
        {
            "constant": true,
            "inputs": [],
            "name": "openingTime",
            "outputs": [
                {
                    "name": "",
                    "type": "uint256"
                }
            ],
            "payable": false,
            "stateMutability": "view",
            "type": "function"
        },
        {
            "constant": false,
            "inputs": [
                {
                    "name": "beneficiary",
                    "type": "address"
                }
            ],
            "name": "buyTokens",
            "outputs": [],
            "payable": true,
            "stateMutability": "payable",
            "type": "function"
        },
        {
            "constant": true,
            "inputs": [],
            "name": "token",
            "outputs": [
                {
                    "name": "",
                    "type": "address"
                }
            ],
            "payable": false,
            "stateMutability": "view",
            "type": "function"
        },
        {
            "inputs": [
                {
                    "name": "_rate",
                    "type": "uint256"
                },
                {
                    "name": "_wallet",
                    "type": "address"
                },
                {
                    "name": "_token",
                    "type": "address"
                },
                {
                    "name": "_openingTime",
                    "type": "uint256"
                },
                {
                    "name": "_closingTime",
                    "type": "uint256"
                },
                {
                    "name": "_cap",
                    "type": "uint256"
                }
            ],
            "payable": false,
            "stateMutability": "nonpayable",
            "type": "constructor"
        },
        {
            "payable": true,
            "stateMutability": "payable",
            "type": "fallback"
        },
        {
            "anonymous": false,
            "inputs": [],
            "name": "CrowdsaleFinalized",
            "type": "event"
        },
        {
            "anonymous": false,
            "inputs": [
                {
                    "indexed": false,
                    "name": "prevClosingTime",
                    "type": "uint256"
                },
                {
                    "indexed": false,
                    "name": "newClosingTime",
                    "type": "uint256"
                }
            ],
            "name": "TimedCrowdsaleExtended",
            "type": "event"
        },
        {
            "anonymous": false,
            "inputs": [
                {
                    "indexed": true,
                    "name": "purchaser",
                    "type": "address"
                },
                {
                    "indexed": true,
                    "name": "beneficiary",
                    "type": "address"
                },
                {
                    "indexed": false,
                    "name": "value",
                    "type": "uint256"
                },
                {
                    "indexed": false,
                    "name": "amount",
                    "type": "uint256"
                }
            ],
            "name": "TokensPurchased",
            "type": "event"
        }
    ],
    "bytecode": "0x608060405234801561001057600080fd5b5060405160c080610aa5833981018060405260c081101561003057600080fd5b81019080805190602001909291908051906020019092919080519060200190929190805190602001909291908051906020019092919080519060200190929190505050808383888888600160008190555060008311151561009057600080fd5b600073ffffffffffffffffffffffffffffffffffffffff168273ffffffffffffffffffffffffffffffffffffffff16141515156100cc57600080fd5b600073ffffffffffffffffffffffffffffffffffffffff168173ffffffffffffffffffffffffffffffffffffffff161415151561010857600080fd5b8260038190555081600260006101000a81548173ffffffffffffffffffffffffffffffffffffffff021916908373ffffffffffffffffffffffffffffffffffffffff16021790555080600160006101000a81548173ffffffffffffffffffffffffffffffffffffffff021916908373ffffffffffffffffffffffffffffffffffffffff1602179055505050504282101515156101a357600080fd5b81811115156101b157600080fd5b816005819055508060068190555050506000811115156101d057600080fd5b80600781905550506000600860006101000a81548160ff02191690831515021790555050505050505061089d806102086000396000f3fe6080604052600436106100df576000357c0100000000000000000000000000000000000000000000000000000000900480634bb278f31161009c578063b3f05b9711610076578063b3f05b9714610291578063b7a8807c146102c0578063ec8ac4d8146102eb578063fc0c546a1461032f576100df565b80634bb278f3146101f45780634f9359451461020b578063521eb2731461023a576100df565b80631515bc2b146100ea5780632c4e722e14610119578063355274ea146101445780634042b66f1461016f57806347535d7b1461019a5780634b6753bc146101c9575b6100e833610386565b005b3480156100f657600080fd5b506100ff61047c565b604051808215151515815260200191505060405180910390f35b34801561012557600080fd5b5061012e610488565b6040518082815260200191505060405180910390f35b34801561015057600080fd5b50610159610492565b6040518082815260200191505060405180910390f35b34801561017b57600080fd5b5061018461049c565b6040518082815260200191505060405180910390f35b3480156101a657600080fd5b506101af6104a6565b604051808215151515815260200191505060405180910390f35b3480156101d557600080fd5b506101de6104c1565b6040518082815260200191505060405180910390f35b34801561020057600080fd5b506102096104cb565b005b34801561021757600080fd5b5061022061054b565b604051808215151515815260200191505060405180910390f35b34801561024657600080fd5b5061024f61055f565b604051808273ffffffffffffffffffffffffffffffffffffffff1673ffffffffffffffffffffffffffffffffffffffff16815260200191505060405180910390f35b34801561029d57600080fd5b506102a6610589565b604051808215151515815260200191505060405180910390f35b3480156102cc57600080fd5b506102d56105a0565b6040518082815260200191505060405180910390f35b61032d6004803603602081101561030157600080fd5b81019080803573ffffffffffffffffffffffffffffffffffffffff169060200190929190505050610386565b005b34801561033b57600080fd5b506103446105aa565b604051808273ffffffffffffffffffffffffffffffffffffffff1673ffffffffffffffffffffffffffffffffffffffff16815260200191505060405180910390f35b6001600080828254019250508190555060008054905060003490506103ab83826105d4565b60006103b68261060c565b90506103cd8260045461062a90919063ffffffff16565b6004819055506103dd848261064b565b8373ffffffffffffffffffffffffffffffffffffffff163373ffffffffffffffffffffffffffffffffffffffff167f6faf93231a456e552dbc9961f58d9713ee4f2e69d15f1975b050ef0911053a7b8484604051808381526020018281526020019250505060405180910390a36104548483610659565b61045c61065d565b61046684836106c8565b50506000548114151561047857600080fd5b5050565b60006006544211905090565b6000600354905090565b6000600754905090565b6000600454905090565b600060055442101580156104bc57506006544211155b905090565b6000600654905090565b600860009054906101000a900460ff161515156104e757600080fd5b6104ef61047c565b15156104fa57600080fd5b6001600860006101000a81548160ff02191690831515021790555061051d6106cc565b7f9270cc390c096600a1c17c44345a1ba689fafd99d97487b10cfccf86cf73183660405160405180910390a1565b600060075461055861049c565b1015905090565b6000600260009054906101000a900473ffffffffffffffffffffffffffffffffffffffff16905090565b6000600860009054906101000a900460ff16905090565b6000600554905090565b6000600160009054906101000a900473ffffffffffffffffffffffffffffffffffffffff16905090565b6105de82826106ce565b6007546105fb826105ed61049c565b61062a90919063ffffffff16565b1115151561060857600080fd5b5050565b6000610623600354836106ef90919063ffffffff16565b9050919050565b600080828401905083811015151561064157600080fd5b8091505092915050565b610655828261072d565b5050565b5050565b600260009054906101000a900473ffffffffffffffffffffffffffffffffffffffff1673ffffffffffffffffffffffffffffffffffffffff166108fc349081150290604051600060405180830381858888f193505050501580156106c5573d6000803e3d6000fd5b50565b5050565b565b6106d66104a6565b15156106e157600080fd5b6106eb8282610821565b5050565b6000808314156107025760009050610727565b6000828402905082848281151561071557fe5b0414151561072257600080fd5b809150505b92915050565b6107356105aa565b73ffffffffffffffffffffffffffffffffffffffff166340c10f1983836040518363ffffffff167c0100000000000000000000000000000000000000000000000000000000028152600401808373ffffffffffffffffffffffffffffffffffffffff1673ffffffffffffffffffffffffffffffffffffffff16815260200182815260200192505050602060405180830381600087803b1580156107d757600080fd5b505af11580156107eb573d6000803e3d6000fd5b505050506040513d602081101561080157600080fd5b8101908080519060200190929190505050151561081d57600080fd5b5050565b600073ffffffffffffffffffffffffffffffffffffffff168273ffffffffffffffffffffffffffffffffffffffff161415151561085d57600080fd5b6000811415151561086d57600080fd5b505056fea165627a7a723058205cf2c6904bef8785402720e44b9be38ae7faf9741c89d9f2ed6b47ce92293f060029",
    "source": "pragma solidity 0.5.2;\n\nimport \"openzeppelin-solidity/contracts/crowdsale/Crowdsale.sol\";\nimport \"openzeppelin-solidity/contracts/crowdsale/validation/TimedCrowdsale.sol\";\nimport \"openzeppelin-solidity/contracts/crowdsale/validation/CappedCrowdsale.sol\";\nimport \"openzeppelin-solidity/contracts/crowdsale/emission/MintedCrowdsale.sol\";\nimport \"openzeppelin-solidity/contracts/token/ERC20/ERC20.sol\";\nimport \"openzeppelin-solidity/contracts/crowdsale/distribution/FinalizableCrowdsale.sol\";\n\n\ncontract CrowdsaleTemplate is Crowdsale, TimedCrowdsale, CappedCrowdsale, MintedCrowdsale, FinalizableCrowdsale {\n\n    constructor\n    (\n        uint256 _rate,\n        address payable _wallet,\n        ERC20 _token,\n        uint256 _openingTime,\n        uint256 _closingTime,\n        uint256 _cap\n    ) \n        Crowdsale(_rate, _wallet, _token)\n        TimedCrowdsale(_openingTime, _closingTime)\n        CappedCrowdsale(_cap)\n        public\n    {\n\n    }\n\n}",
    "sourcePath": "/Users/joonwookim/Projects/erc20-maker/contracts/contracts/WeatherCrowdsale.sol",
    "compiler": {
        "name": "solc",
        "version": "0.5.2+commit.1df8f40c.Emscripten.clang"
    },
    "schemaVersion": "3.0.6",
    "updatedAt": "2019-05-13T07:40:39.328Z",
    "devdoc": {
        "methods": {
            "buyTokens(address)": {
                "details": "low level token purchase ***DO NOT OVERRIDE*** This function has a non-reentrancy guard, so it shouldn't be called by another `nonReentrant` function.",
                "params": {
                    "beneficiary": "Recipient of the token purchase"
                }
            },
            "cap()": {
                "return": "the cap of the crowdsale."
            },
            "capReached()": {
                "details": "Checks whether the cap has been reached.",
                "return": "Whether the cap was reached"
            },
            "closingTime()": {
                "return": "the crowdsale closing time."
            },
            "finalize()": {
                "details": "Must be called after crowdsale ends, to do some extra finalization work. Calls the contract's finalization function."
            },
            "finalized()": {
                "return": "true if the crowdsale is finalized, false otherwise."
            },
            "hasClosed()": {
                "details": "Checks whether the period in which the crowdsale is open has already elapsed.",
                "return": "Whether crowdsale period has elapsed"
            },
            "isOpen()": {
                "return": "true if the crowdsale is open, false otherwise."
            },
            "openingTime()": {
                "return": "the crowdsale opening time."
            },
            "rate()": {
                "return": "the number of token units a buyer gets per wei."
            },
            "token()": {
                "return": "the token being sold."
            },
            "wallet()": {
                "return": "the address where funds are collected."
            },
            "weiRaised()": {
                "return": "the amount of wei raised."
            }
        }
    },
    "userdoc": {
        "methods": {}
    }
}